{
  "contractName": "LojaDeVerduras",
  "abi": [
    {
      "inputs": [],
      "stateMutability": "nonpayable",
      "type": "constructor"
    },
    {
      "inputs": [],
      "name": "owner",
      "outputs": [
        {
          "internalType": "address",
          "name": "",
          "type": "address"
        }
      ],
      "stateMutability": "view",
      "type": "function"
    },
    {
      "inputs": [
        {
          "internalType": "uint256",
          "name": "",
          "type": "uint256"
        }
      ],
      "name": "produtos",
      "outputs": [
        {
          "internalType": "string",
          "name": "nome",
          "type": "string"
        },
        {
          "internalType": "uint256",
          "name": "preco",
          "type": "uint256"
        },
        {
          "internalType": "uint256",
          "name": "quantidade",
          "type": "uint256"
        }
      ],
      "stateMutability": "view",
      "type": "function"
    },
    {
      "inputs": [],
      "name": "proximoId",
      "outputs": [
        {
          "internalType": "uint256",
          "name": "",
          "type": "uint256"
        }
      ],
      "stateMutability": "view",
      "type": "function"
    },
    {
      "inputs": [
        {
          "internalType": "string",
          "name": "nome",
          "type": "string"
        },
        {
          "internalType": "uint256",
          "name": "preco",
          "type": "uint256"
        },
        {
          "internalType": "uint256",
          "name": "quantidade",
          "type": "uint256"
        }
      ],
      "name": "addProduto",
      "outputs": [],
      "stateMutability": "nonpayable",
      "type": "function"
    },
    {
      "inputs": [
        {
          "internalType": "uint256",
          "name": "id",
          "type": "uint256"
        }
      ],
      "name": "comprarProduto",
      "outputs": [],
      "stateMutability": "payable",
      "type": "function"
    },
    {
      "inputs": [
        {
          "internalType": "uint256",
          "name": "id",
          "type": "uint256"
        }
      ],
      "name": "obterProduto",
      "outputs": [
        {
          "internalType": "string",
          "name": "",
          "type": "string"
        },
        {
          "internalType": "uint256",
          "name": "",
          "type": "uint256"
        },
        {
          "internalType": "uint256",
          "name": "",
          "type": "uint256"
        }
      ],
      "stateMutability": "view",
      "type": "function"
    }
  ],
  "bytecode": "0x608060405234801561000f575f80fd5b50600280546001600160a01b031916339081179091556100755760405162461bcd60e51b815260206004820152601960248201527f456e64657265636f20646f20646f6e6f20696e76616c69646f00000000000000604482015260640160405180910390fd5b610948806100825f395ff3fe608060405260043610610054575f3560e01c8063267054b714610058578063666880631461006d5780638da5cb5b146100a4578063e8389def146100db578063eb5ff6c7146100fe578063f4e595de1461011d575b5f80fd5b61006b61006636600461064a565b61013c565b005b348015610078575f80fd5b5061008c61008736600461064a565b610309565b60405161009b93929190610661565b60405180910390f35b3480156100af575f80fd5b506002546100c3906001600160a01b031681565b6040516001600160a01b03909116815260200161009b565b3480156100e6575f80fd5b506100f060015481565b60405190815260200161009b565b348015610109575f80fd5b5061006b6101183660046106ce565b610428565b348015610128575f80fd5b5061008c61013736600461064a565b6105a3565b5f8181526020819052604081208054839291906101589061078b565b9050116101a55760405162461bcd60e51b815260206004820152601660248201527550726f6475746f206e616f20656e636f6e747261646f60501b60448201526064015b60405180910390fd5b5f82815260208190526040902060028101546101f65760405162461bcd60e51b815260206004820152601060248201526f50726f6475746f206573676f7461646f60801b604482015260640161019c565b806001015434101561024a5760405162461bcd60e51b815260206004820152601e60248201527f56616c6f7220696e737566696369656e7465207061726120636f6d7072610000604482015260640161019c565b6001816002015f82825461025e91906107d7565b90915550506002546040515f916001600160a01b03169034908381818185875af1925050503d805f81146102ad576040519150601f19603f3d011682016040523d82523d5f602084013e6102b2565b606091505b50509050806103035760405162461bcd60e51b815260206004820152601d60248201527f46616c6861206e61207472616e73666572656e63696120646520455448000000604482015260640161019c565b50505050565b5f81815260208190526040812080546060929182918591839161032b9061078b565b9050116103735760405162461bcd60e51b815260206004820152601660248201527550726f6475746f206e616f20656e636f6e747261646f60501b604482015260640161019c565b5f85815260208190526040902060018101546002820154825483929190839061039b9061078b565b80601f01602080910402602001604051908101604052809291908181526020018280546103c79061078b565b80156104125780601f106103e957610100808354040283529160200191610412565b820191905f5260205f20905b8154815290600101906020018083116103f557829003601f168201915b5050505050925094509450945050509193909250565b6002546001600160a01b031633146104905760405162461bcd60e51b815260206004820152602560248201527f4170656e6173206f20646f6e6f20706f64652065786563757461722065737461604482015264206163616f60d81b606482015260840161019c565b5f82116104df5760405162461bcd60e51b815260206004820152601d60248201527f507265636f206465766520736572206d61696f7220717565207a65726f000000604482015260640161019c565b5f81116105395760405162461bcd60e51b815260206004820152602260248201527f5175616e746964616465206465766520736572206d61696f7220717565207a65604482015261726f60f01b606482015260840161019c565b6040805160608101825284815260208082018590528183018490526001545f908152908190529190912081518190610571908261083e565b5060208201516001808301919091556040909201516002909101558054905f610599836108fa565b9190505550505050565b5f602081905290815260409020805481906105bd9061078b565b80601f01602080910402602001604051908101604052809291908181526020018280546105e99061078b565b80156106345780601f1061060b57610100808354040283529160200191610634565b820191905f5260205f20905b81548152906001019060200180831161061757829003601f168201915b5050505050908060010154908060020154905083565b5f6020828403121561065a575f80fd5b5035919050565b606081525f84518060608401525f5b8181101561068d5760208188018101516080868401015201610670565b505f608082850101526080601f19601f830116840101915050836020830152826040830152949350505050565b634e487b7160e01b5f52604160045260245ffd5b5f805f606084860312156106e0575f80fd5b833567ffffffffffffffff808211156106f7575f80fd5b818601915086601f83011261070a575f80fd5b81358181111561071c5761071c6106ba565b604051601f8201601f19908116603f01168101908382118183101715610744576107446106ba565b8160405282815289602084870101111561075c575f80fd5b826020860160208301375f60208483010152809750505050505060208401359150604084013590509250925092565b600181811c9082168061079f57607f821691505b6020821081036107bd57634e487b7160e01b5f52602260045260245ffd5b50919050565b634e487b7160e01b5f52601160045260245ffd5b818103818111156107ea576107ea6107c3565b92915050565b601f821115610839575f81815260208120601f850160051c810160208610156108165750805b601f850160051c820191505b8181101561083557828155600101610822565b5050505b505050565b815167ffffffffffffffff811115610858576108586106ba565b61086c81610866845461078b565b846107f0565b602080601f83116001811461089f575f84156108885750858301515b5f19600386901b1c1916600185901b178555610835565b5f85815260208120601f198616915b828110156108cd578886015182559484019460019091019084016108ae565b50858210156108ea57878501515f19600388901b60f8161c191681555b5050505050600190811b01905550565b5f6001820161090b5761090b6107c3565b506001019056fea2646970667358221220d03998320aabdb92a3ba849e2a5b383764b8499fb36715a61d3eae2742e12aee64736f6c63430008150033",
  "immutableReferences": {},
  "source": "// SPDX-License-Identifier: MIT\npragma solidity ^0.8.21;\n\ncontract LojaDeVerduras {\n    struct Produto {\n        string nome;\n        uint256 preco;\n        uint256 quantidade;\n    }\n\n    mapping(uint256 => Produto) public produtos;\n    uint256 public proximoId;\n\n    address public owner;\n\n    constructor() {\n        owner = msg.sender;\n        require(owner != address(0), \"Endereco do dono invalido\");\n    }\n\n    modifier onlyOwner() {\n        require(msg.sender == owner, \"Apenas o dono pode executar esta acao\");\n        _;\n    }\n\n    modifier produtoExiste(uint256 id) {\n        require(bytes(produtos[id].nome).length > 0, \"Produto nao encontrado\");\n        _;\n    }\n\n    function addProduto(\n        string memory nome,\n        uint256 preco,\n        uint256 quantidade\n    ) public onlyOwner {\n        require(preco > 0, \"Preco deve ser maior que zero\");\n        require(quantidade > 0, \"Quantidade deve ser maior que zero\");\n        produtos[proximoId] = Produto(nome, preco, quantidade);\n        proximoId++;\n    }\n\n    function comprarProduto(uint256 id) public payable produtoExiste(id) {\n        Produto storage produto = produtos[id];\n        require(produto.quantidade > 0, \"Produto esgotado\");\n        require(msg.value >= produto.preco, \"Valor insuficiente para compra\");\n\n        produto.quantidade -= 1;\n\n        // Transferncia para o proprietrio\n        (bool enviado, ) = payable(owner).call{value: msg.value}(\"\");\n        require(enviado, \"Falha na transferencia de ETH\");\n    }\n\n    function obterProduto(\n        uint256 id\n    ) public view produtoExiste(id) returns (string memory, uint256, uint256) {\n        Produto storage produto = produtos[id];\n        return (produto.nome, produto.preco, produto.quantidade);\n    }\n}\n",
  "sourcePath": "/home/filipanselmo/github-projects/loja-verdura-sc/contracts/LojaDeVerduras.sol",
  "compiler": {
    "name": "solc",
    "version": "0.8.21+commit.d9974bed.Emscripten.clang"
  },
  "schemaVersion": "3.4.16",
  "updatedAt": "2024-12-30T16:09:26.862Z",
  "devdoc": {
    "kind": "dev",
    "methods": {},
    "version": 1
  },
  "userdoc": {
    "kind": "user",
    "methods": {},
    "version": 1
  }
}